:100000000C94C8010C94F2010C94F2010C94F201CE
:100010000C94F2010C94F2010C94F2010C94F20194
:100020000C948D200C94F2010C94F2010C94F201CA
:100030000C94F2010C94F2010C94F2010C94F20174
:100040000C94F2010C94F2010C94032A0C94F2012A
:100050000C94FD210C9433220C94F2010C94F201C7
:100060000C94F2010C94F2010C94F2010C94F20144
:100070000C9494220C94CA220C94F2010C94F20178
:100080000C94F2010C94F2010C94F201142B172B36
:100090000A2B0E2B2E2B2E2B1B2B1F2B252B292B0C
:1000A000434C4F5345440D0A000D0A2B434950520F
:1000B000584745543A002C22494E495449414C2254
:1000C000002C22434C4F53494E4722002C22434CD4
:1000D0004F53454422002C22434F4E4E4543544536
:1000E0004422002B4349505354415455533D002B57
:1000F00043495052584745543A002B4349505258AF
:100100004745543D342C002B4349505258474554E1
:100110003A002B43495052584745543D322C000D6C
:100120000A44415441204143434550543A003E0063
:100130002B43495053454E443D00414C52454144A8
:100140005920434F4E4E4543540D0A00434F4E4EE7
:10015000454354204641494C0D0A00434F4E4E45FD
:100160004354204F4B0D0A00222C00222C22002247
:10017000544350002B43495053544152543D002B9B
:1001800043495053534C3D002B4349505348555419
:10019000002B43444E534346473D22382E382E38D9
:1001A0002E38222C22382E382E342E3422002B4387
:1001B000494653523B4530002B43494943520022A4
:1001C00000222C2200222C22002B435354543D2287
:1001D000002B43495052584745543D31002B434969
:1001E000505153454E443D31002B4349504D5558D5
:1001F0003D31002B43474154543D31002B53415076
:1002000042523D322C31002B53415042523D312C51
:1002100031002B43474143543D312C31002B4347A0
:1002200044434F4E543D312C224950222C22002B66
:1002300053415042523D332C312C22505744222CF2
:1002400022002B53415042523D332C312C22555326
:100250004552222C22002B53415042523D332C3127
:100260002C2241504E222C22002B53415042523D11
:10027000332C312C22436F6E74797065222C224707
:1002800050525322000D0A2B4353513A002B435333
:1002900051000D0A2B435245473A002B4352454724
:1002A0003F004E4F5420494E53455254454400534D
:1002B000494D2050554B0053494D2050494E005256
:1002C00045414459000D0A2B4350494E3A002B43F7
:1002D00050494E3F000D0A002B47534E002B43461A
:1002E000554E3D312C31002B4346554E3D30004993
:1002F000000045300026465A002B434950434C4FDE
:1003000053453D004552524F520D0A004F4B0D0AC6
:10031000000000000203000A0B00000000050409B1
:1003200008000000000000000000000000000000C5
:10033000000102040810204080010204081020403F
:1003400080010204081020408001020408102040AF
:1003500080020202020202020204040404040404F1
:10036000040303030303030303010101010101016A
:100370000100002200250028002B0000002100249D
:100380000027002A0000F610F21B6722FE2244110B
:1003900011241FBECFEFD0E4DEBFCDBF13E0A0E03D
:1003A000B1E0E4EFFDE500E00BBF02C007900D9265
:1003B000A23BB107D9F722E1A2EBB3E001C01D9245
:1003C000AB33B207E1F711E0C7ECD1E004C02197ED
:1003D000FE010E94DC2BC33CD107C9F70E94F4291F
:1003E0000C94ED2E0C940000CF93DF931F92CDB7A9
:1003F000DEB76983DC01ED91FC910280F381E02D91
:1004000041E050E0BE016F5F7F4F09950F90DF9193
:10041000CF910895CF93DF931F92CDB7DEB7DC0164
:10042000ED91FC910088F189E02D41E050E0BE01A2
:100430006F5F7F4F0995019719F4898190E002C0A1
:100440008FEF9FEF0F90DF91CF9108958FEF9FEF88
:100450000895DC011C96ED91FC911D97808191819E
:10046000DC01ED91FC910284F385E02D0994CF939A
:10047000DF93EC01E881F9810480F581E02D099595
:10048000892B11F48D8901C081E0DF91CF9108950E
:10049000DC01ED91FC910488F589E02D099591E04E
:1004A000811101C090E0892F08950895CF92DF92C5
:1004B000EF92FF920F931F93CF93DF9300D000D062
:1004C00000D0CDB7DEB77C018B016A0160E771E037
:1004D000CE0101960E94B02560E170E0CE01019648
:1004E0000E947325D80112966C91CE0101960E944C
:1004F000152767EC71E0CE0101960E94F326F80102
:100500006381CE0101960E94152767EC71E0CE0150
:1005100001960E94F326D80114966C91CE010196A3
:100520000E94152767EC71E0CE0101960E94F32628
:10053000F8016581CE0101960E94152769817A81B3
:10054000D701ED91FC910684F785E02DA601C70146
:1005500009958C01CE0101960E944225C80126967C
:100560000FB6F894DEBF0FBECDBFDF91CF911F91C4
:100570000F91FF90EF90DF90CF900895CF93DF938E
:10058000EC0188819981DC01ED91FC910480F58179
:10059000E02D0995892B31F460E070E0CB010E94D9
:1005A0007C2AEFCF88819981DC01ED91FC91068056
:1005B000F781E02D09958C9721F781E0DF91CF91AC
:1005C00008952F923F924F925F926F927F928F92F7
:1005D0009F92AF92BF92CF92DF92EF92FF920F93D2
:1005E0001F93CF93DF93CDB7DEB766970FB6F8941E
:1005F000DEBF0FBECDBF2C014B8B5C8B6D8B7E8B1A
:1006000039011801FE86ED86D88ACF86BA8AA98A72
:10061000840160E470E0C9010E9473250E944D2AA4
:100620004B015C0160E070E0CB010E947C2AD201AA
:100630008D919C91DC01ED91FC910480F581E02D80
:100640000995181619060CF044C1F20180819181B8
:10065000DC01ED91FC910680F781E02D09951816DB
:1006600019062CF7682FC3010E94022721143104B8
:1006700029F4ED85FE85EF2BD1F414C0B101CE0134
:1006800001960E94B526BE016F5F7F4FC3010E9495
:100690009427F82ECE0101960E944225FF2049F3AF
:1006A00081E032C12F853889232BD9F415C06D859F
:1006B0007E85CE0101960E94B526BE016F5F7F4FF9
:1006C000C3010E949427F82ECE0101960E94422574
:1006D000FF2041F382E018C149895A89452BD1F4A2
:1006E00015C06F857889CE0101960E94B526BE019E
:1006F0006F5F7F4FC3010E949427F82ECE010196B1
:100700000E944225FF2041F383E0FEC00115110540
:1007100051F515C069897A89CE0101960E94B526E6
:10072000BE016F5F7F4FC3010E949427F82ECE0158
:1007300001960E944225FF2049F384E0E5C069EA62
:1007400070E0CE0101960E94B526BE016F5F7F4F1B
:10075000C3010E949427F82ECE0101960E944225E3
:10076000F11015C059C0B801CE0101960E94B526FE
:10077000BE016F5F7F4FC3010E949427F82ECE0108
:1007800001960E944225FF20D1F285E0BDC0D20132
:100790006D917C914CE2CE0107960E941925CE0105
:1007A00007960E94E829613071058105910549F598
:1007B000F201608171814AE0CE0101960E94192503
:1007C000CE0101960E94E8296B017C01CE010196C1
:1007D0000E944225F5E0CF16D10468F42FEFC21A2B
:1007E000D20ACC0CDD1CF201EC0DFD1D0190F08154
:1007F000E02D31E0368B60E771E0C3010E9458269E
:1008000006C0BE01695F7F4FC3010E94EC26CE0186
:1008100007960E9442250BCF60EA70E0CE01019658
:100820000E94B526BE016F5F7F4FC3010E949427CF
:10083000F82ECE0101960E944225FF2009F4F7CE42
:10084000D3011496ED90FC901597B8E0EB1AF108DF
:100850006EE671E0CE0101960E94B025A701BE01AF
:100860006F5F7F4FC3010E94F1277C01CE0101968B
:100870000E944225E2E0EE0EF11CA7016CE2C301EA
:100880000E94B4279C01A701B301CE0101960E94EA
:100890004928CE0101960E94E8296B017C01CE0116
:1008A00001960E944225F5E0CF16D10460F42FEFA7
:1008B000C21AD20ACC0CDD1CF201EC0DFD1D019018
:1008C000F081E02D158A60E771E0C3010E9458268F
:1008D000AECE0E944D2ADC01CB0188199909AA09E4
:1008E000BB092B893C894D895E8982179307A40730
:1008F000B50708F497CEC3010E94882960E771E02C
:10090000C3010E94582680E066960FB6F894DEBFB9
:100910000FBECDBFDF91CF911F910F91FF90EF9050
:10092000DF90CF90BF90AF909F908F907F906F900F
:100930005F904F903F902F9008952F923F924F924B
:100940005F926F927F928F929F92AF92BF92CF925F
:10095000DF92EF92FF920F931F93CF93DF93CDB768
:10096000DEB728970FB6F894DEBF0FBECDBF3C01AF
:100970001A012B0138872F8360E771E0CE010196C1
:100980000E94B02545015601670178010F81188545
:100990009E012F5F3F4FB201A101C3010E94E102FE
:1009A000182FCE0101960E944225812F28960FB65E
:1009B000F894DEBF0FBECDBFDF91CF911F910F9195
:1009C000FF90EF90DF90CF90BF90AF909F908F906F
:1009D0007F906F905F904F903F902F900895AF92CF
:1009E000BF92CF92DF92EF92FF920F931F93570126
:1009F000680179018A019B0148EE53E060E070E0F4
:100A00000E949D041F910F91FF90EF90DF90CF9077
:100A1000BF90AF9008958F929F92AF92BF92CF9266
:100A2000DF92EF92FF920F931F93CF93DF93EC012E
:100A30004B015A01C22ED02E67E671E08881998160
:100A40000E94F4236FE771E0888199810E94C2239C
:100A5000602F70E04AE050E0888199810E94E22492
:100A60006EE671E0888199810E94F42388819981E2
:100A7000DC01ED91FC910284F385E02D099560E0A5
:100A800070E0CB010E947C2AE12CF12C00E010E008
:100A900020E030E044E053E06CE073E0CE010E94DF
:100AA000EF04DD2019F0813009F060C067E671E0E5
:100AB000888199810E94F42364E771E0888199819B
:100AC0000E94C2234AE050E06C2D888199810E94E7
:100AD0007B246CE2888199810E94F6236FE671E0A5
:100AE000888199810E94C2236BE671E08881998197
:100AF0000E94C223B401888199810E94F42368E690
:100B000071E0888199810E94C2234AE050E0B501DA
:100B1000888199810E9494246EE671E08881998190
:100B20000E94F42388819981DC01ED91FC9102847B
:100B3000F385E02D099560E070E0CB010E947C2AEE
:100B4000A12CB12CC12CD12C8AE3E82E81E0F82E07
:100B50000CE411E02BE531E048EF54E261E070E095
:100B6000CE010E949D0491E0813009F090E0892F30
:100B7000DF91CF911F910F91FF90EF90DF90CF9079
:100B8000BF90AF909F908F900895CF92DF92EF9299
:100B9000FF920F93CF93DF93EC017B016A0160E03A
:100BA00070E0CB010E947C2AFE01E75EFB4F1182C0
:100BB000108232971182108200E02E85A601B701C3
:100BC0008C859D850E940B058D8B90E0DF91CF91E8
:100BD0000F91FF90EF90DF90CF90089520E030E0EC
:100BE00040E050E065E070E083EF90E10E94462035
:100BF00082EB93E00C94FE19EF92FF921F93CF9338
:100C0000DF93EC017B01142F67E671E08881998105
:100C10000E94F423B701888199810E94C2234AE08F
:100C200050E0612F888199810E947B246EE671E0FB
:100C3000888199810E94F42388819981DC01ED915A
:100C4000FC910284F385E02D099560E070E0CB0112
:100C5000DF91CF911F91FF90EF900C947C2A9F928F
:100C6000AF92BF92CF92DF92EF92FF920F931F93BA
:100C7000CF93DF9300D000D000D0CDB7DEB76C01AA
:100C8000962E462F6AEF70E00E94FC05E12CF12CB5
:100C900000E010E020E030E044E053E06FEE70E070
:100CA000C6010E94EF04813071F1F601E90DF11DDA
:100CB000E90DF11DA280B380492D63EE70E0C601FD
:100CC0000E94FC05E12CF12C06EB10E021EC30E059
:100CD0004CEC50E066ED70E0C6010E94EF04982EE7
:100CE00000E010E020E030E044E053E06CE073E02E
:100CF000C6010E94EF0481E0981280E0F501858B27
:100D0000A12CB12C28C0C6010E94BE02C6010E94BF
:100D1000BE02F601608171814AE0CE0101960E9417
:100D20001925CE0101960E94E8295B01CE010196AA
:100D30000E944225E12CF12C00E010E020E030E0A0
:100D400044E053E06CE073E0C6010E94EF04A1149C
:100D5000B10409F4AACFC50126960FB6F894DEBFF8
:100D60000FBECDBFDF91CF911F910F91FF90EF90FC
:100D7000DF90CF90BF90AF909F900895AF92BF92B9
:100D8000CF92DF92EF92FF920F931F93CF93DF9357
:100D9000EC016C0182E0C80ED11C10E0D601ED9090
:100DA000FD906D01E114F10471F0F701868988234B
:100DB00051F0168A612FCE010E942F06D70150965E
:100DC0009C938E931F971F5F153041F788819981FF
:100DD000DC01ED91FC910480F581E02D0995892BD2
:100DE00091F0A12CB12CC12CD12CE12CF12C00E0E4
:100DF00010E020E030E04AE050E060E070E0CE013A
:100E00000E949D04E3CFDF91CF911F910F91FF903E
:100E1000EF90DF90CF90BF90AF900895EF92FF9248
:100E20000F931F93CF93DF93EC0160E070E0CB0151
:100E30000E947C2A4E8569EF72E08C859D850E9418
:100E4000FC051D8AE12CF12C00E010E020E030E0F0
:100E500044E053E06CE073E08C859D850E94EF04D4
:100E6000DF91CF911F910F91FF90EF900895DC01DA
:100E7000BC5FFC01EE5FFB4F8D919C912081318125
:100E8000821B930B97FD9C5F0895CF92DF92EF92A8
:100E9000FF920F931F93CF93DF93EC0160E070E01C
:100EA000CB010E947C2A8E01095E1F4FC8010E945F
:100EB0003707892B01F58D898823E9F00E944D2A97
:100EC000C988DA88EB88FC88DC01CB018C199D0984
:100ED000AE09BF09853F9140A105B10540F081E011
:100EE0008E8B0E944D2A698B7A8B8B8B9C8B8C8589
:100EF0009D850E94BE06C8010E9437072F8538894C
:100F0000820F931FDF91CF911F910F91FF90EF9070
:100F1000DF90CF900895CF92DF92EF92FF921F93D0
:100F2000CF93DF93EC016B017A01122F67E671E03A
:100F3000888199810E94F423B601888199810E9459
:100F4000C223B701888199810E94F423612F88818F
:100F500099810E94F6236EE671E0888199810E9452
:100F6000F42388819981DC01ED91FC910284F38561
:100F7000E02D099560E070E0CB01DF91CF911F91EA
:100F8000FF90EF90DF90CF900C947C2ACF92DF926D
:100F9000EF92FF920F931F93CF93DF93EC016B01BE
:100FA000E42EF22E67E671E0888199810E94F42395
:100FB000B601888199810E94C2234AE050E06E2DDB
:100FC000888199810E947B246F2D888199810E945C
:100FD000F6234AE050E0B801888199810E94942468
:100FE0006EE671E0888199810E94F423888199815D
:100FF000DC01ED91FC910284F385E02D099560E020
:1010000070E0CB01DF91CF911F910F91FF90EF9096
:10101000DF90CF900C947C2A5F926F927F928F9298
:101020009F92AF92BF92CF92DF92EF92FF920F9377
:101030001F93CF93DF9300D000D000D0CDB7DEB7A1
:101040006C01542E8B012CE262E171E00E94C60714
:10105000E12CF12C00E010E020E030E044E053E02F
:1010600067E071E0C6010E94EF04813009F084C09E
:10107000C6010E94BE02C6010E94BE02D6016D9149
:101080007C914CE2CE0101960E941925CE01019679
:101090000E94E8294B015C013B01CE0101960E94B0
:1010A00042258601050D111D050D111DF801E28077
:1010B000F380D6016D917C914AE0CE0101960E94A9
:1010C0001925CE0101960E94E829F701708B6787E8
:1010D000CE0101960E944225E12CF12CE614F70482
:1010E000E0F5D6018D919C91DC01ED91FC9104809D
:1010F000F581E02D0995892B31F460E070E0CB019A
:101100000E947C2AEECFF60180819181DC01ED9175
:10111000FC910680F781E02D0995F80162817381C9
:10112000DB01A95EBB4F4D915C9111979A012F5F36
:101130003F4F3370FB01E75EFB4F0190F081E02DE4
:101140002E173F0731F0FB01E40FF51F878B2D931E
:101150003C93FFEFEF1AFF0AC1CFE12CF12C00E026
:1011600010E020E030E044E053E06CE073E0C601C2
:101170000E94EF04C40102C080E090E026960FB602
:10118000F894DEBF0FBECDBFDF91CF911F910F91BD
:10119000FF90EF90DF90CF90BF90AF909F908F9097
:1011A0007F906F905F9008952F923F924F925F9241
:1011B0006F927F928F929F92AF92BF92CF92DF9267
:1011C000EF92FF920F931F93CF93DF93CDB7DEB7CC
:1011D00028970FB6F894DEBF0FBECDBF8C015B0120
:1011E0005C834B8360E070E0CB010E947C2AF801B5
:1011F000848595850E94BE06C12CD12C1801F7E18B
:101200002F0E311CC801875E9B4F9A838983F8019A
:10121000E95EFB4FFE83ED838B819C81C816D90666
:1012200008F06AC0C1010E943707EB80FC80EC180F
:10123000FD088E159F0508F47C01E114F104D9F135
:1012400047012501C1010E943707009729F4AE0C20
:10125000BF1CCE0CDF1CE0CFE981FA816080718079
:1012600020E034E026193709821693060CF4940125
:1012700098878F832817390714F438872F83B10193
:10128000660D771D4F815885C2010E94452E8F81C2
:101290009885680E791E93E07922E981FA8171823E
:1012A00060828F819885881A990A480E591E811488
:1012B000910469F2C7CFF801848595850E94BE0626
:1012C000F80187859089892BB9F04685E981FA81F3
:1012D00060817181ED81FE8180819181681B790B34
:1012E000161617060CF07C5F61507109F8018485B1
:1012F00095850E940C0890CFC60128960FB6F894E9
:10130000DEBF0FBECDBFDF91CF911F910F91FF9038
:10131000EF90DF90CF90BF90AF909F908F907F9095
:101320006F905F904F903F902F9008958F929F9273
:10133000AF92BF92CF92DF92EF92FF920F931F93E3
:10134000CF93DF9300D000D000D0CDB7DEB76C01D3
:101350004B015A01422F85012CE260E371E00E94AB
:10136000C607E12CF12C00E010E020E030E044E082
:1013700053E06EE271E0C6010E94EF04813019F083
:101380000FEF1FEF39C0D6018D919C91DC01ED91DB
:10139000FC910280F381E02DA501B4010995F601CD
:1013A00080819181DC01ED91FC910284F385E02D37
:1013B0000995E12CF12C00E010E020E030E044E061
:1013C00053E06FE171E0C6010E94EF048130C1F685
:1013D000C6010E94BE02F601608171814AE0CE0121
:1013E00001960E941925CE0101960E94E8298B01E1
:1013F000CE0101960E944225C80126960FB6F894A8
:10140000DEBF0FBECDBFDF91CF911F910F91FF9037
:10141000EF90DF90CF90BF90AF909F908F90089506
:10142000EF92FF920F931F93CF93DF93EC018B0109
:101430007A0160E070E0CB010E947C2A8C859D855A
:101440000E94BE062E85A701B8018C859D85DF917F
:10145000CF911F910F91FF90EF900C949609EF920E
:10146000FF920F931F93CF93DF93EC017A018901D1
:10147000888199810E94F423B701888199810E9413
:10148000C223B80188819981DF91CF911F910F917B
:10149000FF90EF900C94F423CF93DF93EC01AB011A
:1014A0002EE631E067E671E00E942F0A888199817B
:1014B000DC01ED91FC910284F385E02D099560E05B
:1014C00070E0CB01DF91CF910C947C2A4F925F9218
:1014D0006F927F92AF92BF92CF92DF92EF92FF9284
:1014E0000F931F93CF93DF9300D000D000D0CDB7E0
:1014F000DEB79E838D8349835A836B837C830E94EE
:101500004D2A2B013C010E944D2ADC01CB0184199C
:101510009509A609B70929813A814B815C81821717
:101520009307A407B50748F561EF72E08D819E81AE
:101530000E944C0AA12CB12CC12CD12CE12CF12CF5
:1015400004E013E02CE033E048EC50E060E070E0B1
:101550008D819E810E949D04813041F464E670E09B
:1015600080E090E00E947C2A81E008C064E670E0A0
:1015700080E090E00E947C2AC6CF80E026960FB6DD
:10158000F894DEBF0FBECDBFDF91CF911F910F91B9
:10159000FF90EF90DF90CF90BF90AF907F906F90D3
:1015A0005F904F9008954F925F926F927F928F92CB
:1015B0009F92AF92BF92DF92EF92FF920F931F9391
:1015C000CF93DF93EC012A013B010E944D2A4B018E
:1015D0005C010E944D2ADC01CB0188199909AA09F6
:1015E000BB0984159505A605B70508F040C06EEC4B
:1015F00072E0CE010E944C0AE12CF12C00E010E0D8
:1016000020E030E044E053E065EC72E0CE010E945F
:10161000EF04813039F068EE73E080E090E00E94E2
:101620007C2AD7CFE12CF12C02EA12E02FEA32E03B
:1016300047EB52E06FEB72E0CE010E94EF04D82E30
:1016400000E010E020E030E044E053E06CE073E0C4
:10165000CE010E94EF0481E0D81631F0D81638F0A0
:1016600083E08D1538F403C081E090E005C080E090
:1016700090E002C082E090E0DF91CF911F910F9146
:10168000FF90EF90DF90BF90AF909F908F907F90F2
:101690006F905F904F900895AF92BF92CF92DF927C
:1016A000EF92FF920F931F93CF93DF93EC0140E1F2
:1016B00057E260E070E00E94660A811102C0D12CFE
:1016C00060C067EE72E0CE010E944C0AA12CB12CE2
:1016D000C12CD12CE12CF12C04E013E02CE033E000
:1016E00040E157E260E070E0CE010E949D0481304D
:1016F00031F76DED72E0CE010E944C0A2CE033E030
:1017000040E157E260E070E0CE010E949D0481302C
:10171000B1F668EB7BE080E090E00E947C2A40E13B
:1017200057E260E070E0CE010E94660AD82E88235E
:1017300031F265EF72E0CE010E944C0A00E010E049
:1017400020E030E044E053E06CE073E0CE010E9422
:10175000EF0462EF72E0CE010E944C0A20E030E01C
:1017600044E053E06CE073E0CE010E94EF0481306E
:1017700009F0A5CF40E157E260E070E0CE010E94A1
:10178000D30A8D2DDF91CF911F910F91FF90EF9094
:10179000DF90CF90BF90AF9008954F925F926F927D
:1017A0007F928F929F92AF92BF92CF92DF92EF92F1
:1017B000FF920F931F93CF93DF93CDB7DEB762975E
:1017C0000FB6F894DEBF0FBECDBF3C012B016FEE0C
:1017D00072E0C2010E944C0A60E771E0CE010D96F2
:1017E0000E94B025812C912CA12CB12CC12CD12C84
:1017F00084E0E82E83E0F82E0CE013E09E01235FE6
:101800003F4F48EE53E060E070E0C2010E94E10209
:1018100060E771E0813021F0C3010E94B02544C02F
:10182000CE0101960E94B0256AE671E0CE010796CE
:101830000E94B025AE014F5F5F4FBE01695F7F4FD1
:10184000CE010D960E948E28CE0107960E94422559
:10185000CE0101960E94422563E073E0CE0101961D
:101860000E94B0256EE671E0CE0107960E94B02579
:10187000AE014F5F5F4FBE01695F7F4FCE010D9696
:101880000E948E28CE0107960E944225CE01019625
:101890000E944225CE010D960E948829BE01635FF9
:1018A0007F4FC3010E942326CE010D960E94422540
:1018B000C30162960FB6F894DEBF0FBECDBFDF91B5
:1018C000CF911F910F91FF90EF90DF90CF90BF903D
:1018D000AF909F908F907F906F905F904F90089502
:1018E0004F925F926F927F928F929F92AF92BF9230
:1018F000CF92DF92EF92FF920F931F93CF93DF93DC
:10190000CDB7DEB72A970FB6F894DEBF0FBECDBFB6
:101910006C014F83588769877A870E944D2A2B0173
:101920003C010E944D2ADC01CB0184199509A609CE
:10193000B7092F81388549855A8582179307A407EF
:10194000B50708F044C06BE972E0C6010E944C0A7A
:10195000E12CF12C00E010E020E030E044E053E026
:1019600062E972E0C6010E94EF04813039F068EE4E
:1019700073E080E090E00E947C2AD3CFC6010E94F1
:10198000BE02F601608171814AE0CE0101960E949B
:101990001925CE0101960E94E8294B015C01CE0178
:1019A00001960E944225E12CF12C00E010E020E09D
:1019B00030E044E053E06CE073E0C6010E94EF04C5
:1019C000E89482F88A94892891F681E001C080E049
:1019D0002A960FB6F894DEBF0FBECDBFDF91CF9130
:1019E0001F910F91FF90EF90DF90CF90BF90AF903D
:1019F0009F908F907F906F905F904F9008958F92FF
:101A00009F92AF92BF92CF92DF92EF92FF920F938D
:101A10001F93CF93DF9300D000D000D0CDB7DEB7B7
:101A20006C016DE872E00E944C0AE12CF12C00E0A0
:101A300010E020E030E044E053E065E872E0C601E9
:101A40000E94EF048130E9F4F601608171814CE27B
:101A5000CE0101960E941925CE0101960E94E82927
:101A60004B015C01CE0101960E94422520E030E04E
:101A700044E053E06CE073E0C6010E94EF04C4014F
:101A800002C083E690E026960FB6F894DEBF0FBE44
:101A9000CDBFDF91CF911F910F91FF90EF90DF901D
:101AA000CF90BF90AF909F908F900895EF92FF924C
:101AB0000F931F93CF93DF93CDB7DEB762970FB627
:101AC000F894DEBF0FBECDBF68ED72E085E090E117
:101AD0000E944C0AE12CF12C00E010E020E030E004
:101AE00044E053E065ED72E085E090E10E94EF0490
:101AF000813039F060E771E0CE0107960E94B02591
:101B000026C060910510709106104AE0CE01019642
:101B10000E941925E12CF12C00E010E020E030E0DB
:101B200044E053E06CE073E085E090E10E94EF0454
:101B3000CE0101960E948829BE016F5F7F4FCE01C2
:101B400007960E942326CE0101960E94422561E756
:101B500071E0CE0101960E94B025BE01695F7F4F02
:101B6000CE0101960E944027BC01CE010D960E9435
:101B70004326CE0101960E944225CE0107960E947F
:101B800042254BE557E06AE771E082EB93E00E9463
:101B9000E31B65E572E082EB93E00E94EC1B82EBB5
:101BA00093E00E945518811120C06D857E8521E942
:101BB00031E047E951E082EB93E00E94E919882384
:101BC00039F061EA71E082EB93E00E94E01BE7CF1D
:101BD0006CEA71E084EF90E10E94132468EE73E0F8
:101BE00080E090E00E947C2ADACF69EC71E084EF1B
:101BF00090E10E941324CE010D960E944225629628
:101C00000FB6F894DEBF0FBECDBFDF91CF911F910D
:101C10000F91FF90EF9008954F925F926F927F9295
:101C20008F929F92AF92BF92CF92DF92EF92FF92EC
:101C30000F931F93CF93DF93EC012B013A014901DE
:101C400068E871E00E944C0AA12CB12CC12CD12C67
:101C5000E12CF12C04E013E02CE033E040E65AEEF6
:101C600060E070E0CE010E949D0469E672E0CE0162
:101C70000E944C0A00E010E020E030E044E053E035
:101C80006CE073E0CE010E94EF0422E2A20166E55F
:101C900072E0CE010E948B0720E030E044E053E088
:101CA0006CE073E0CE010E94EF046114710481F0D6
:101CB00022E2A30162E472E0CE010E948B0720E0E1
:101CC00030E044E053E06CE073E0CE010E94EF04AA
:101CD00081149104A1F022E2A4016FE272E0CE012E
:101CE0000E948B07E12CF12C00E010E020E030E0B6
:101CF00044E053E06CE073E0CE010E94EF0422E286
:101D0000A2016DE172E0CE010E948B07E12CF12C63
:101D100000E010E020E030E044E053E06CE073E0ED
:101D2000CE010E94EF0462E172E0CE010E944C0AF3
:101D3000A12CB12CC12CD12C04E013E02CE033E019
:101D400040E65AEE60E070E0CE010E949D0467E03C
:101D500072E0CE010E944C0A2CE033E048E05CE4E3
:101D600061E070E0CE010E949D046CEF71E0CE0155
:101D70000E944C0A2CE033E040E355E760E070E05D
:101D8000CE010E949D04813009F0C6C063EF71E06E
:101D9000CE010E944C0AA12CB12CC12CD12CE12CDB
:101DA000F12C04E013E02CE033E040E65AEE60E072
:101DB00070E0CE010E949D04813009F0ADC069EE53
:101DC00071E0CE010E944C0A00E010E020E030E01B
:101DD00044E053E06CE073E0CE010E94EF048130F8
:101DE00009F09AC06DED71E0CE010E944C0A20E02E
:101DF00030E044E053E06CE073E0CE010E94EF0479
:101E0000813009F089C061ED71E0CE010E944C0A79
:101E100020E030E044E053E06CE073E0CE010E944B
:101E2000EF04813009F078C067E671E0888199811C
:101E30000E94F42369EC71E0888199810E94C22399
:101E4000B201888199810E94F42365EC71E0888158
:101E500099810E94C223B301888199810E94F42351
:101E600061EC71E0888199810E94C2232EE631E005
:101E70004FEB51E0B401CE010E942F0A8881998175
:101E8000DC01ED91FC910284F385E02D099560E081
:101E900070E0CB010E947C2A04E013E02CE033E0E8
:101EA00040E65AEE60E070E0CE010E949D04813071
:101EB00099F568EB71E0CE010E944C0A2CE033E00A
:101EC00040E65AEE60E070E0CE010E949D04813051
:101ED00019F56EEA71E0CE010E944C0A2CE033E065
:101EE00040E157E260E070E0CE010E949D04813045
:101EF00099F461E971E0CE010E944C0A00E010E023
:101F000020E030E044E053E06CE073E0CE010E945A
:101F1000EF0491E0813009F090E0892FDF91CF91BB
:101F20001F910F91FF90EF90DF90CF90BF90AF90F7
:101F30009F908F907F906F905F904F9008950F9338
:101F40001F93CF93DF93CDB7DEB762970FB6F894A8
:101F5000DEBF0FBECDBF64EF71E080E090E00E9475
:101F60007C2A68EE71E084EF90E10E94132461E026
:101F70008AE10E942F2B60E08AE10E946B2B60EBCC
:101F800074E080E090E00E947C2A69EF71E084EFC9
:101F900090E10E94132461E08AE10E946B2B60EBC8
:101FA00074E080E090E00E947C2A26E040E051EE60
:101FB00060E070E081E991E10E947B2185E090E1A1
:101FC0000E944C0B65E070E1CE010D960E94CD0B96
:101FD0006FE072E0CE0101960E94B025BE016F5FF6
:101FE0007F4FCE010D960E94ED278C01CE01019608
:101FF0000E9442250F3F1F4FB1F581E991E10E94F8
:10200000DB2160E08AE10E946B2B60EB74E080E0F2
:1020100090E00E947C2A61E08AE10E946B2B60EBD9
:1020200074E080E090E00E947C2A26E040E051EEDF
:1020300060E070E081E991E10E947B2185E090E120
:102040000E944C0B65E070E1CE0101960E94CD0B21
:10205000BE016F5F7F4FCE010D960E944C26CE01D0
:1020600001960E94422566E172E084EF90E10E94B1
:10207000F423BE01635F7F4F84EF90E10E9401244F
:102080006EE172E084EF90E10E94F42340E65AEEA4
:1020900060E070E085E090E10E94700C811107C063
:1020A00065E372E084EF90E10E941324FFCF6BE3BD
:1020B00072E084EF90E10E94132464E472E084EF04
:1020C00090E10E94F4236FE872E084EF90E10E94B7
:1020D000F42320E832E047E852E06FE872E085E060
:1020E00090E10E940C0E811107C065E372E084EF5D
:1020F00090E10E941324FFCF6BE372E084EF90E144
:102100000E94132485E090E10E94FF0C4AE0BC018C
:10211000CE0107960E946F2663E572E0CE0101961C
:102120000E94B025BE01695F7F4FCE0101960E94DB
:102130004027BC0184EF90E10E940124CE0101966A
:102140000E944225CE0107960E944225CE010D969F
:102150000E94422562960FB6F894DEBF0FBECDBF37
:10216000DF91CF911F910F91089526E040E052EC4E
:1021700061E070E084EF90E10E947B216AEF70E003
:1021800080E090E00E947C2A61E087E10E942F2B92
:1021900061E087E10E946B2B61E08BE10E942F2BB5
:1021A00061E08BE10E946B2B61E08AE10E942F2BA2
:1021B00061E085E10E942F2B60E082E10E942F2BDD
:1021C00061E083E00E942F2B60E08AE10E946B2B8C
:1021D00061E085E10E946B2B0E949F0F0E94560DCB
:1021E00065E070E080E090E00C947C2A0F93CF9340
:1021F000DF9300E020E040E060E083EE90E10E94A9
:10220000772366E181E190E10E94FD1BA5E0B0E14A
:1022100081E991E111969C938E938AE0E7E0F0E1E9
:10222000EF0119928A95E9F7EAEEFBE01382128238
:1022300048EE53E060E070E0448355836683778323
:1022400088E692E09183808310920410109203102C
:102250001092021010920110B587A48781E0868742
:10226000108A1786118A128A138A148A158A168A86
:102270001596FC93EE931497BF0182EB93E0DF91E8
:10228000CF910F910C94501184EE9BE00E94422557
:102290008EED9BE00E94422588ED9BE00C94422548
:1022A0000F931F93CF93DF93EC018B01815F974FC7
:1022B0000E946D2360E771E0CE018A5D974F0E9416
:1022C000B02560E771E0CE01845D974F0E94B02594
:1022D00060E771E0CE018E5C974F0E94B025FE0151
:1022E000E55EF74F8FEF9FEF91838083198308831B
:1022F000C75ED74F19821882DF91CF911F910F913E
:102300000895CF92DF92EF92FF920F931F93CF9396
:10231000DF93EC018B010E944D2A6B017C018881C7
:102320009981DC01ED91FC910480F581E02D099506
:10233000892B79F40E944D2ADC01CB018C199D096F
:10234000AE09BF0988399A43A105B10540F380E081
:102350000CC088819981DC01ED91FC910680F781A8
:10236000E02D0995F801808381E0DF91CF911F91E5
:102370000F91FF90EF90DF90CF9008950F931F93F0
:10238000CF93DF938A01FA01C081D1816C0F7D1F49
:102390000E948111882321F02196F801D183C08306
:1023A000DF91CF911F910F91089580ED860F8A30B4
:1023B00038F08FE9860F863018F489EA860F089581
:1023C00008952F923F924F925F926F927F928F92D9
:1023D0009F92AF92BF92CF92DF92EF92FF920F93B4
:1023E0001F93CF93DF93CDB7DEB7C25CD0410FB65A
:1023F000F894DEBF0FBECDBF6C01CE54DF4E7983A3
:102400006883C25BD041C056DF4E19821882C05A21
:10241000D0417C0122E0E20EF11CAE0140565F4E3D
:10242000B7010E94BE11882309F490C5D601129607
:102430007C90CE55DF4E1882C25AD04160E771E0E1
:10244000CE0186569F4E0E94B02560E771E0CE0116
:102450008C569F4E0E94B025F601EE5DF74F11821B
:1024600010828601035E174FF8011082CB55DF4EB4
:10247000188219821A821B82C55AD041812C912C54
:1024800054018394BE016E557F4EC6010E94811196
:10249000811103C000E010E04EC5C056DF4E8881B8
:1024A0009981C05AD041FC013196C056DF4EF98364
:1024B000E883C05AD041CE55DF4E6880C25AD04121
:1024C000D601A80FB91F12966C92A62DAF77B0E077
:1024D000A50194010E94F42BCB55DF4E2881398150
:1024E0004A815B81C55AD041260F371F481F591FAB
:1024F000CB55DF4E288339834A835B83C55AD0414D
:1025000047E0880C991CAA1CBB1C4A95D1F767FCB4
:10251000B9CF372D307FCC54DF4E3883C45BD041E8
:10252000E150CE54DF4EA881B981C25BD041EC931B
:10253000303379F5AE0140565F4EB701C6010E94B7
:10254000BE11882309F4A6CFAE0140565F4EB701F5
:10255000C6010E94BE11882309F49CCFCE54DF4EE1
:10256000E881F981C25BD0418081F601E80FF11D5D
:10257000838190E0982F882724811C01220E311C32
:10258000D60112968C9181FF08C0B2E02B0E311C4F
:1025900004C080E0212C312C01C082E0CB55DF4EFD
:1025A000288139814A815B81C55AD0412130384028
:1025B0004105510518F091E0D8019C93482E512C0B
:1025C000612C712CCF54DF4E1882C15BD041EFEFEC
:1025D000FFEFC755DF4EF983E883C95AD041A12CDC
:1025E000B12C00E010E0C355DF4E188219821A8228
:1025F0001B82CD5AD0419601275E374FC554DF4E1E
:1026000039832883CB5BD041A601435E574FC35427
:10261000DF4E59834883CD5BD041D101A80FB11D56
:10262000CD019D0140E050E0C154DF4E2883398345
:102630004A835B83CF5BD04180589F4F9C0140E031
:1026400050E0CB54DF4E288339834A835B83C55BDC
:10265000D041A6014E5D574FC754DF4E5983488382
:10266000C95BD041CB55DF4E88819981AA81BB815E
:10267000C55AD041481659066A067B0608F03FC481
:10268000BE016E557F4EC6010E948111882309F458
:1026900001CFC554DF4EA881B981CB5BD0418D916C
:1026A0009C91009739F1CC54DF4EB881C45BD04186
:1026B000B03301F5C056DF4E28813981C05AD04170
:1026C00022503109CE54DF4EE881F981C25BD041FE
:1026D0004081241B31092216330660F4DC01ED91A0
:1026E000FC910190F081E02DCE55DF4E6881C25AF9
:1026F000D0410995C354DF4EE881F981CD5BD041CB
:102700008081882309F4DBC3C154DF4E28813981DD
:102710004A815B81CF5BD041421653066406750641
:10272000C8F4C056DF4E88819981C05AD0419C01BF
:102730002F5F3F4FC056DF4E39832883C05AD041A8
:10274000F601E80FF91FCE55DF4E2881C25AD0415D
:10275000228353C0CB54DF4E88819981AA81BB81EB
:10276000C55BD04184159505A605B70560F0FE014F
:10277000E00FF11FCE55DF4E8881C25AD0418183D0
:102780000F5F1F4F3AC0C755DF4EA881B981C95AA4
:10279000D041119699F4CE55DF4E6881C25AD0418E
:1027A000C6010E94D51140E1849F90011124C755B4
:1027B000DF4E39832883C95AD0411FC078015FEFAB
:1027C000E51AF50ACE55DF4E6881C25AD041C601DE
:1027D0000E94D511FE01E00FF11FC755DF4E988111
:1027E000C95AD041890F81838701AFEFBFEFC75529
:1027F000DF4EB983A883C95AD041CB54DF4E28811C
:1028000039814A815B81C55BD0414216530664061B
:10281000750609F0F3C2AE014F5F5F4FCD55DF4E35
:1028200059834883C35AD041FE01EF5FFF4EDA015E
:10283000BF01CD01CD55DF4E28813981C35AD0412A
:10284000821B930B8017910718F48D918193F1CF20
:10285000FB01E00FF11F1082CE018E579F4E0E94A8
:10286000B025BE016E577F4ECE0186569F4E0E9408
:102870004C26CE018E579F4E0E9442256CE972E095
:10288000CE0188579F4E0E94B025BE0168577F4EEB
:10289000CE0186569F4E0E94ED278C016EE972E0B4
:1028A000CE0182579F4E0E94B025BE0162577F4ED7
:1028B000CE0186569F4E0E94ED27AC014F5F5F4FC1
:1028C0009801BE0166567F4ECE018E579F4E0E94E4
:1028D0004928A6014A5D574FC555DF4E59834883A5
:1028E000CB5AD041BE016E577F4ECA010E944C2682
:1028F000CE018E579F4E0E944225CE0182579F4E99
:102900000E944225CE0188579F4E0E94422560E7D3
:1029100071E0CE018E579F4E0E94B02560EA72E0B2
:10292000CE0188579F4E0E94B025AE014E575F4E94
:10293000BE0168577F4EC555DF4E88819981CB5ABD
:10294000D0410E948E28CE0188579F4E0E9442257A
:10295000CE018E579F4E0E94422562EA72E0CE0160
:102960008E579F4E0E94B025BE016E577F4ECE01FE
:1029700086569F4E0E94ED278C01CE018E579F4EAA
:102980000E9442256CE972E0CE0188579F4E0E945A
:10299000B025A801BE0168577F4ECE0186569F4ED6
:1029A0000E94D0277C016EE972E0CE0182579F4ED3
:1029B0000E94B025A801BE0162577F4ECE01865607
:1029C0009F4E0E94D027AC014F5F5F4F9701BE0121
:1029D00066567F4ECE018E579F4E0E944928BE01FB
:1029E0006E577F4ECE018C569F4E0E944C26CE01D4
:1029F0008E579F4E0E944225CE0182579F4E0E94C5
:102A00004225CE0188579F4E0E94422560E771E023
:102A1000CE018E579F4E0E94B02560EA72E0CE0133
:102A200088579F4E0E94B025AE014E575F4EBE01A3
:102A300068577F4ECE018C569F4E0E948E28CE0145
:102A400088579F4E0E944225CE018E579F4E0E946E
:102A50004225CE018C569F4E0E94E829460152EE37
:102A6000851A57EF950A22E030E040E050E00E94DE
:102A7000BD2BD4012D933D934D935C93139761EB44
:102A800072E0CE018E579F4E0E94B025BE016E5758
:102A90007F4ECE0186569F4E0E94ED278C01CE01BF
:102AA0008E579F4E0E9442256CE972E0CE018857F6
:102AB0009F4E0E94B025A801BE0168577F4ECE01EF
:102AC00086569F4E0E94D0277C016EE972E0CE01AF
:102AD00082579F4E0E94B025A801BE0162577F4ECB
:102AE000CE0186569F4E0E94D027AC014F5F5F4FAC
:102AF0009701BE0166567F4ECE018E579F4E0E94B3
:102B00004928BE016E577F4E86010E5C174FC801E3
:102B10000E944C26CE018E579F4E0E944225CE0128
:102B200082579F4E0E944225CE0188579F4E0E9499
:102B3000422560E771E0CE018E579F4E0E94B0257E
:102B400060EA72E0CE0188579F4E0E94B025AE0128
:102B50004E575F4EBE0168577F4EC8010E948E28B7
:102B6000CE0188579F4E0E944225CE018E579F4E20
:102B70000E9442256DEB72E0CE018E579F4E0E945F
:102B8000B025BE016E577F4ECE0186569F4E0E94E5
:102B9000ED278C01CE018E579F4E0E9442256CE995
:102BA00072E0CE0188579F4E0E94B025A801BE0159
:102BB00068577F4ECE0186569F4E0E94D0277C01DB
:102BC0006EE972E0CE0182579F4E0E94B025A801A7
:102BD000BE0162577F4ECE0186569F4E0E94D0277F
:102BE000AC014F5F5F4F9701BE0166567F4ECE012D
:102BF0008E579F4E0E944928BE016E577F4ECE01D0
:102C00008C569F4E0E944C26CE018E579F4E0E949E
:102C10004225CE0182579F4E0E944225CE01885701
:102C20009F4E0E94422560E771E0CE018E579F4E75
:102C30000E94B02560EA72E0CE0188579F4E0E9444
:102C4000B025AE014E575F4EBE0168577F4ECE0194
:102C50008C569F4E0E948E28CE0188579F4E0E9410
:102C60004225CE018E579F4E0E944225CE018C56A2
:102C70009F4E0E94E829F601EC5DF74F7183608357
:102C800060EA72E0CE018E579F4E0E94B025BE01D1
:102C90006E577F4ECE0186569F4E0E943F288C0174
:102CA000CE018E579F4E0E944225F40140815181F2
:102CB0006281738141305105F2E06F07710508F0C0
:102CC00043C0E1E0F0E0EC0FFD1FEA0DFB1D86E4E0
:102CD0008083FE01EA0DFB1D8CE48283FE01EA0D78
:102CE000FB1D88E58383FE01EA0DFB1D89E48483D7
:102CF000FE01EA0DFB1D8DE48583FE01EA0DFB1D3F
:102D00002AE32683FE01EA0DFB1D6783FE01EA0D1F
:102D1000FB1D5087C5010996FE01EA0DFB1D418789
:102D20003AE0A30EB11CE1E0F0E0EC0FFD1FE80F6C
:102D3000F91F20834A0D5B1D611D711DD4014D9348
:102D40005D936D937C931397C801EE24E394F12C6B
:102D5000EC0EFD1EE00EF11EE1E0F0E0EC0FFD1FB9
:102D6000AE0EBF1E8501CD55DF4E28813981C35A75
:102D7000D041021B130B4C0132E0830E911C41E841
:102D800084169104C0F4D70111966C91C6010E947B
:102D9000D511182FF7016281C6010E94D511F0E10B
:102DA0001F9F800D1124D5018D935D01B2E0EB0EC4
:102DB000F11CC401D7CF8F37910591F4CF57DF4F66
:102DC0006881C158D040C6010E94D51120E1829F80
:102DD000F0011124C755DF4EF983E883C95AD04169
:102DE000B601645D774FC555DF4E88819981CB5A16
:102DF000D0410E948327882309F15801011530E151
:102E0000130799F0D301C2010196A11DB11DCB5545
:102E1000DF4E288139814A815B81C55AD0418217B2
:102E20009307A407B50709F064C0CF54DF4E38817B
:102E3000C15BD041332309F45CC008C00115B0E187
:102E40001B0709F086C0A12C80E1B82EEE24E39484
:102E50009E012F5F3F4FC355DF4E488159816A81E4
:102E60007B81CD5AD04181E190E10E945F1CC75423
:102E7000DF4EA881B981C95BD0418D919C9111979A
:102E800001968D939C93C355DF4E288139814A81E9
:102E90005B81CD5AD041305F4F4F5F4FC355DF4EFE
:102EA000288339834A835B83CD5AD04131E0CF54A4
:102EB000DF4E3883C15BD04100E010E01AC0C0563D
:102EC000DF4E88819981C05AD041811548E094072E
:102ED00048F4CE55DF4E2881C25AD041F601E80FA2
:102EE000F91F22830196C056DF4E99838883C05A0A
:102EF000D0415FEF451A550A650A750AB3CBF60152
:102F0000E75EF74F80819181892B79F4C056DF4EBF
:102F100088819981C05AD0418130984030F0C056A4
:102F2000DF4E19821882C05AD041C056DF4E088148
:102F30001981C05AD041CE018C569F4E0E94422525
:102F4000CE0186569F4E0E9442250BC000E010E045
:102F500008C05801E1E0CF54DF4EE883C15BD041A7
:102F600051CFC801CE53DF4E0FB6F894DEBF0FBE6F
:102F7000CDBFDF91CF911F910F91FF90EF90DF9028
:102F8000CF90BF90AF909F908F907F906F905F9009
:102F90004F903F902F900895CF92DF92EF92FF9243
:102FA0000F931F93CF93DF9300D000D0CDB7DEB740
:102FB0007C01F62FC901E0E0782F7F77880F892FF9
:102FC000881F990B9195009709F0706801E010E057
:102FD0000C0F1D1F0E0F111DD8017C93EF5F009782
:102FE00059F7CE2ED12CBA016C197D096C5F7F4F39
:102FF000DB01FC93CE010196DA01AC19BD091596EF
:103000004B5F5F4FA417B50729F0FC011191CF0169
:103010001D93F8CFD7018D919C912F5F3F4F890170
:103020000C0D1D1DDC01ED91FC910280F381E02D62
:10303000A80109956C010E944D2AF701EC5FF74F3A
:10304000608371838283938381E00C151D0509F0F1
:1030500080E00F900F900F900F90DF91CF911F9114
:103060000F91FF90EF90DF90CF900895CF93DF9373
:10307000F9013296E40FF51FEB01DE01A61BB70B39
:10308000CF01841B950B2991222311F02193F5CFB9
:103090009C012A1B3B0B420F531FFA013297B0834E
:1030A0003196A083DF91CF9108951F93CF93DF9343
:1030B000FC01A081B181109759F1EC01ED91FC91D7
:1030C00011970488F589E02DCD01099511E0811152
:1030D00020C010E0FE01E55EF74F80819181892BD1
:1030E000C1F48DEF9FEF9183808388819981DC010A
:1030F000ED91FC910284F385E02D099588819981F9
:10310000DC01ED91FC910288F389E02D099501C065
:1031100010E0812FDF91CF911F9108952F923F9260
:103120004F925F926F927F928F929F92AF92BF92D7
:10313000CF92DF92EF92FF920F931F93CF93DF9383
:10314000CDB7DEB72C970FB6F894DEBF0FBECDBF5C
:103150004C011B012A0139010E945518D82E8111FA
:103160001EC1F401EB5EF74F60817181D4018D9136
:103170009C911197A95EB74F6115710549F04D916A
:103180005C91DC01ED91FC910684F785E02D22C075
:10319000FC0120813181F9010484F585E02DFC8753
:1031A000EB87ED91FC9123EA33E03A832983D40144
:1031B000A15FB74F12964D915D916D917C911597DE
:1031C0004B835C836D837E83AF01BE016F5F7F4F56
:1031D000EB85FC850995F4018130910509F0D9C092
:1031E000EE5FF74F9183808387E0E6E0F1E0DE0158
:1031F000119601900D928A95E1F7FE013196D40166
:103200001796C4010E9621912D93A817B907D9F7E7
:103210000115110559F0F0E2CF9EC001112486601E
:1032200028E0E29E700111248E2901C082E0411441
:10323000510431F06114710411F4806801C0806C94
:10324000D4011E968C931E971F961C921F978FE099
:1032500050968C937401B2E0EB0EF11C2FE030E03D
:10326000A701B101C4010E9436180115110561F0D2
:103270009C01A701B801C4010E9436189C01A70156
:10328000B501C4010E9436184114510479F09C0123
:10329000A701B201C4010E9436186114710431F013
:1032A0009C01A701B301C4010E9436189C0125505E
:1032B0003109A70160E1C4010E94CC170E944D2A88
:1032C000F401EC5FF74F6083718382839383840101
:1032D000085F174FF8016083718382839383D40161
:1032E0008D919C91DC01ED91FC910480F581E02DA4
:1032F0000995892BE9F40E944D2AF80140805180FC
:1033000062807380DC01CB0184199509A609B70995
:1033100088399A43A105B10510F3F401E55EF74F32
:103320008CEF9FEF91838083D4018D919C9129C074
:10333000BE01685F7F4FC4010E94E1110497F1F460
:10334000F40185819401255E374F7901811112C006
:103350000E944D2AD8016D937D938D939C93139772
:10336000F401E45FF74F1082F70111821082DD242F
:10337000D39415C090E0D9018D939C93F401808182
:103380009181DC01ED91FC910288F389E02D099592
:1033900006C0E55EF74F8EEF9FEF918380838D2D02
:1033A0002C960FB6F894DEBF0FBECDBFDF91CF9144
:1033B0001F910F91FF90EF90DF90CF90BF90AF9053
:1033C0009F908F907F906F905F904F903F902F9045
:1033D0000895AF92BF92CF92EF920F931F93A12CBB
:1033E000B12CC12CE12C00E010E00E948E181F913E
:1033F0000F91EF90CF90BF90AF9008952F923F9292
:103400004F925F926F927F928F929F92AF92BF92F4
:10341000CF92DF92EF92FF920F931F93CF93DF93A0
:1034200000D000D01F92CDB7DEB78C012DB73EB7CC
:103430003D832C830E945518582E882309F44DC1D2
:103440000E944D2A6B017C01480138E0830E931ED7
:10345000F40180819181A281B381A7019601281B8B
:10346000390B4A0B5B0BDA01C90189399A43A10573
:10347000B10590F4349780819181A281B381A70135
:103480009601281B390B4A0B5B0BDA01C9018939FC
:103490009A43A105B105D0F1580144EFA41A47EFB2
:1034A000B40AD5012C91F80180819181222379F011
:1034B000E55EF74F2CEF3FEF31832083DC01ED9188
:1034C000FC910288F389E02D0995512C06C120EC6E
:1034D000F80122831382DC01ED91FC910280F381DB
:1034E000E02D42E050E0B8016E5F7F4F0995F80192
:1034F000EC5FF74FC082D182E282F382F401C08296
:10350000D182E282F38281E0D5018C93F80180813F
:103510009181DC01ED91FC910480F581E02D09950C
:10352000892B09F4DAC0BE016F5F7F4FC8010E948A
:10353000E1115C01892B09F4D0C0F401C082D18271
:10354000E282F382D80112969C901297892D807F97
:10355000803309F0A5C0F801E35FF74F6080718008
:103560006114710409F4B9C0EDB7FEB7FB83EA83B7
:10357000E981F0E0AE0FBF1F13962C91139730E056
:10358000322F222714968C91280F311DC9010196E4
:103590004DB75EB7481B590B0FB6F8945EBF0FBE10
:1035A0004DBF8DB79EB70196AF014B5F5F4F400F88
:1035B000511F1C01BC01620F731F2616370639F01C
:1035C000DA018D90AD01D1018D921D01F6CFD101AF
:1035D0001C92B92DB6704B2E42E0B41345C0B90110
:1035E0006E0F7F1FD801A60FB71F15964C91159728
:1035F00050E0542F44271696AC911A012A0E311C24
:10360000480152E0850E911C4BEF5FEF4E1B5F0BA4
:10361000421B530B4A0D5B1D6B5F7F4F680D791D7D
:10362000F301099580E4D80112968C9312971396B2
:103630004C92139714963C92149715962C921597CA
:103640008D919C91DC01ED91FC910280F381E02D44
:1036500044E050E0B4010995F801EC5FF74FC082F7
:10366000D182E282F38214C04DEF5FEF4E1B5F0BFD
:10367000421B530B4A0D5B1D0E5F1F4FBF016D5F59
:103680007F4F260F371FB801620F731FF301099593
:103690002A813B810FB6F8943EBF0FBE2DBF1DC0DF
:1036A000803CA9F480EDD80112968C931297139662
:1036B0001C92F80181919191BF01DC01ED91FC9187
:1036C0000280F381E02D42E050E0099506C0803D84
:1036D00021F4F801E45FF74F1082852DEC81FD8124
:1036E0000FB6F894FEBF0FBEEDBF0F900F900F9076
:1036F0000F900F90DF91CF911F910F91FF90EF905E
:10370000DF90CF90BF90AF909F908F907F906F9001
:103710005F904F903F902F900895DF92EF92FF922D
:103720000F931F93CF93DF93423008F040C0FB010B
:1037300001900020E9F79F01261B370B285F3F4FC0
:1037400021303840A0F5D42E8B01EC010E94551891
:10375000882369F1FE01EE5FF74F80819181019628
:1037600011F481E090E091838083808191819F8337
:1037700088877E0182E0E80EF11C27E030E0A70197
:10378000B801CE010E943618FE01E80FF91FD2825F
:103790009C0124503109A70162E8CE01DF91CF914D
:1037A0001F910F91FF90EF90DF900C94CC1780E069
:1037B000DF91CF911F910F91FF90EF90DF900895CF
:1037C00040E00C948D1BFC01EB5EF74F718360832E
:1037D0003296518340830895FC01E35FF74F718374
:1037E000608308950F9300E020E040E060E089EE00
:1037F00090E10E9477230F910895CF93DF93EC011E
:10380000862F90E59883198219861A861B8692E581
:103810009E8B97E59F8B188E198E1A8E1B8EFE013C
:10382000EC5AFF4F1082118212821382349610825A
:10383000118212821382DE01A858BF4F90E1EDE0A1
:10384000F1E001900D929A95E1F7DE01A857BF4F84
:1038500090E4EDE1F1E001900D929A95E1F7DE013F
:10386000A853BF4F97E0EDE5F1E001900D929A95D6
:10387000E1F7FE01E153FF4F2091640130916501B2
:10388000409166012083318342836C83E62FF0E010
:10389000EF5CFC4FE491EC8761E00E942F2B61E02C
:1038A0008C81DF91CF910C946B2B662329F041E042
:1038B0006091EF100E9421208091EF1008952F92C7
:1038C0003F924F925F926F927F928F929F92AF92B0
:1038D000BF92CF92DF92EF92FF920F931F93CF93FD
:1038E000DF93CDB7DEB728970FB6F894DEBF0FBED3
:1038F000CDBF98878F834A015B0139016801EE8251
:10390000780100E010E09A01AB0162E00E949F1F85
:103910008983882309F4D4C0C401992700E011E009
:10392000081B190B0C151D0548F160E0EF81F885A7
:1039300084810E946B2B42E0EF81F8856789CF017B
:103940000E94981E8F8198850E94D91D7301830162
:103950000C0D1D1DE016F10651F0F70141917F019C
:10396000EF81F8856789CF010E94981EF3CF61E04F
:10397000EF81F88584810E946B2B66C07601212C33
:10398000312C2F8138852C5A3F4F3D832C83E016F4
:10399000F10608F4870160E0EF81F88584810E94D8
:1039A0006B2B42E0EF81F8856789CF010E94981E5A
:1039B0008F8198850E94D91D9301220D331D3B8371
:1039C0002A832901F20141912F01EF81F88567894E
:1039D000CF010E94981EC2012A813B81821B930B5A
:1039E0008017910778F361E0EF81F88584810E9468
:1039F0006B2BEC81FD8180819181A281B381800F4D
:103A0000911FA11DB11D80839183A283B383200EDA
:103A1000311EE01AF10A40E05AEC6AE97BE38F813B
:103A200098850E94361F882309F44AC061E08F817F
:103A300098850E947E1F882309F442C000E011E0AF
:103A4000E114F10409F0A3CFFE81F11105C08F81CB
:103A500098850E94031F35C040E05AEC6AE97BE379
:103A60008F8198850E94361F882351F1EF81F88558
:103A7000EC5AFF4F80829182A282B38260E0EF8194
:103A8000F88584810E946B2B43E0EF81F88567897C
:103A9000CF010E94981E8F8198850E94D91DC60C67
:103AA000D71CC614D70499F240E0EF81F8856689E7
:103AB000CF010E94981EF30191913F01891789F36C
:103AC0001982898128960FB6F894DEBF0FBECDBF4C
:103AD000DF91CF911F910F91FF90EF90DF90CF90EA
:103AE000BF90AF909F908F907F906F905F904F901E
:103AF0003F902F9008958EBD00000DB407FEFDCFBE
:103B00008EB508958F929F92AF92BF92CF92DF921F
:103B1000EF92FF920F931F93CF93DF93EC014A0133
:103B20005B016801790160E00E94551C877F83304A
:103B300091F18AA19BA1ACA1BDA10097A105B105FE
:103B400039F440E061E08FEE90E10E94402023C014
:103B5000950184010C0D1D1D2E1D3F1DFE01E85A0F
:103B6000FF4FCC5ADF4F081719072A073B0748F0C9
:103B7000081B190B2A0B3B0B008311832283338311
:103B800004C0108211821282138288829982AA82D2
:103B9000BB8281E001C080E0DF91CF911F910F9146
:103BA000FF90EF90DF90CF90BF90AF909F908F905D
:103BB0000895CF93DF93EC018A85882331F0FE01CD
:103BC000E95AFF4F80810E947B1DFE01EA5AFF4F98
:103BD00080810E947B1DFE01EB5AFF4F80810E9475
:103BE0007B1DCC5ADF4F88810E947B1D81E0DF91D5
:103BF000CF910895FC018CB5818B8DB5828B40816E
:103C000031818091F210882399F02FB7F894809138
:103C1000F210813059F48DB38093F0109DB38091F0
:103C2000F110809589238DBB2FBF02C02093F01027
:103C30004CBD3DBD81E0808708951F93CF93DF93F6
:103C4000EC01162F8885811103C0CE010E94FA1D58
:103C500060E08C810E946B2B1B30B1F030F412308D
:103C600061F01330D1F483E009C0123591F0183DB2
:103C700091F0103291F480E201C082E00E947B1D3D
:103C8000CE010E94D91D0CC08BE00E947B1D8EEEE0
:103C9000F5CF82E5F3CF88EDF1CF812F0E947B1D18
:103CA00081E0DF91CF911F9108958F929F92AF9203
:103CB000BF92CF92DF92EF92FF920F931F93CF9319
:103CC000DF93EC014801590163E00E941D1EC12CE5
:103CD000D12C7601C814D904EA04FB04B9F080E0C1
:103CE0000E947B1D8F3F61F061E08C810E946B2BF5
:103CF00040E067E08FEE90E10E94402080E00BC042
:103D00008FEFC81AD80AE80AF80AE4CF61E08C817C
:103D10000E946B2B81E0DF91CF911F910F91FF905B
:103D2000EF90DF90CF90BF90AF909F908F900895CD
:103D3000842F0C947B1DCF93DF93EC0165E00E94F0
:103D40001D1E80E00E947B1D8E8761E08C810E9499
:103D50006B2B8E85DF91CF910895CF93DF93EC018C
:103D600065E10E941D1E80E00E947B1D888B61E042
:103D70008C810E946B2B8889DF91CF910895CF931E
:103D8000DF93EC010E94AD1E80FD18C067EBCE01F1
:103D90000E941D1E61E08C810E946B2BCE010E944F
:103DA000AD1E80FF03C081E08A8709C040E06DE05E
:103DB0008FEE90E10E94402080E001C081E0DF9121
:103DC000CF910895CF93DF93EC010E94AD1E80FF49
:103DD00016C069EECE010E941D1E61E08C810E941A
:103DE0006B2BCE010E94AD1E80FF08C040E06EE04C
:103DF0008FEE90E10E94402080E002C01A8681E0B0
:103E0000DF91CF910895CF93DF93EC0161E08C8136
:103E10000E946B2B8A85882319F0CE010E94E21E36
:103E20008091F210882361F09FB7F8942091F210EE
:103E30008091F010213019F48DBB9FBF01C08FBF5E
:103E400089898CBD8A898DBD1886DF91CF910895AF
:103E5000CF93FC01C185CC2331F040E06FE08FEEC1
:103E600090E10E9440208C2FCF9108958F929F92D5
:103E7000AF92BF92CF92DF92EF92FF92CF93DF93F8
:103E8000EC016A017B0188E08A95F1F70E94592ACA
:103E90004B015C01CE010E949B1E8E8580FD02C0FD
:103EA00081E021C00E94592ADC01CB0188199909BF
:103EB000AA09BB098C159D05AE05BF0558F30E94E4
:103EC000592ADC01CB0188199909AA09BB098C156B
:103ED0009D05AE05BF0520F340E064E08FEE90E164
:103EE0000E94402080E0DF91CF91FF90EF90DF9023
:103EF000CF90BF90AF909F908F9008951F93CF93D6
:103F0000DF93EC01162F66E00E941D1E61E08C819C
:103F10000E946B2BCE010E949B1E81FD09C01123C4
:103F200049F040E066E08FEE90E10E94402002C040
:103F300081E001C080E0DF91CF911F9108957F92D1
:103F40008F929F92AF92BF92CF92DF92EF92FF92A9
:103F50000F931F93CF93DF93EC01762E49015A0103
:103F6000670178018F8D8F3E39F082E0781679F005
:103F70008FEE781611F140C02115310541055140F1
:103F8000A0F3CE010E94BF1E8111EFCF4BC0CE0126
:103F90000E94281F811146C097018601B501A40126
:103FA000CE010E94821D8823E9F197018601B501A7
:103FB000A401CE010E94551E0CC0CE010E94281FF4
:103FC000811130C097018601B501A401CE010E9484
:103FD000821D882339F140E05AEC6AE97BE3CE0187
:103FE0000E94361F8823F1F061E0CE010E947E1FFF
:103FF0008823C1F081E017C0CE010E94281F8111E3
:1040000011C097018601B501A401CE010E94821D55
:10401000882341F040E05AEC6AE97BE3CE010E943C
:10402000361FE6CF80E0DF91CF911F910F91FF9077
:10403000EF90DF90CF90BF90AF909F908F907F9048
:1040400008958FEE90E10C944020CF93DF93EC0124
:1040500063EC72E084EF90E10E94F4238881803168
:1040600030F464E172E084EF90E10E94F42340E1D7
:1040700050E0688184EF90E1DF91CF910C9482242D
:10408000FC01608341110C942520089541155105D0
:1040900029F4EAE7F0E080818F7780836A30710548
:1040A000A9F063FD02C088E001C088E26770682B58
:1040B00088E10FB6F894A895809360000FBE6093D6
:1040C0006000E0E6F0E0808180648083232B79F457
:1040D00083B7817F846083BFF89483B7816083BF97
:1040E0007894889583B78E7F83BF78940EC083B70A
:1040F000817F846083BFF89483B7816083BF7894A5
:10410000889583B78E7F83BF7894452B29F4EAE79F
:10411000F0E080818068808308951F920F920FB62F
:104120000F9211248F930FB6F894A8958091600098
:10413000886180936000109260000FBE8F910F9095
:104140000FBE0F901F901895FC01918D228D892F25
:1041500090E0805C9F4F821B91098F73992708958F
:10416000FC01918D828D981731F0828DE80FF11D41
:10417000858D90E008958FEF9FEF0895FC01918D5C
:10418000828D981761F0828DDF01A80FB11D5D96B9
:104190008C91928D9F5F9F73928F90E008958FEF27
:1041A0009FEF08958DE592E2892B41F080E090E049
:1041B000892B21F00E945D2281110DC084EF92E2D3
:1041C000892B71F080E090E0892B51F00E94F4225D
:1041D000811104C008950E940000F0CF0C940000EB
:1041E0000895FC01848DDF01A80FB11DA35ABF4FB4
:1041F0002C91848D90E001968F739927848FA689E6
:10420000B7892C93A089B1898C9180648C93938D0C
:10421000848D981306C00288F389E02D80818F7DFC
:1042200080830895EF92FF920F931F93CF93DF93B4
:10423000EC0181E0888F9B8D8C8D981305C0E889F7
:10424000F989808185FD24C0F62E0B8D10E00F5F6B
:104250001F4F0F731127E02E8C8DE8120CC00FB684
:1042600007FCFACFE889F989808185FFF5CFCE0177
:104270000E94F120F1CF8B8DFE01E80FF11DE35A72
:10428000FF4FF0820B8FEA89FB898081806207C033
:10429000EE89FF896083E889F98980818064808361
:1042A00081E090E0DF91CF911F910F91FF90EF900F
:1042B0000895CF93DF93EC01888D8823C9F0EA89B4
:1042C000FB89808185FD05C0A889B9898C9186FD0F
:1042D0000FC00FB607FCF5CF808185FFF2CFA8890C
:1042E000B9898C9185FFEDCFCE010E94F120E7CFF7
:1042F000DF91CF910895CF92DF92EF92FF921F93BB
:10430000CF93DF93EC016A017B01122F60EC76EC16
:104310008DE290E0A70196010E949B2BDA01C90172
:104320000197A109B109B695A795979587959C0125
:10433000E889F98982E08083211580E13807A8F0B7
:10434000E889F989108260E673EE86E190E0A701C2
:1043500096010E949B2BDA01C9010197A109B109BD
:10436000B695A795979587959C01EC85FD8530833B
:10437000EE85FF852083188EEC89FD891083EA89FC
:10438000FB89808180618083EA89FB8980818860E4
:104390008083EA89FB89808180688083EA89FB8940
:1043A00080818F7D8083DF91CF911F91FF90EF906F
:1043B000DF90CF900895CF93DF93EC01E881F981EE
:1043C0000284F385E02D0995EA89FB8980818F7E3F
:1043D0008083EA89FB898081877F8083EA89FB89E2
:1043E00080818F778083EA89FB8980818F7D8083BC
:1043F0008A8D898FDF91CF9108951F920F920FB60A
:104400000F9211240BB60F922F938F939F93EF93DC
:10441000FF93E0910411F09105118081E0910A1160
:10442000F0910B1182FD12C0908180910D118F5F70
:104430008F7320910E11821751F0E0910D11F0E071
:10444000EC50FF4E958F80930D1101C08081FF913C
:10445000EF919F918F912F910F900BBE0F900FBEF8
:104460000F901F9018951F920F920FB60F92112464
:104470000BB60F922F933F934F935F936F937F935E
:104480008F939F93AF93BF93EF93FF9384EF90E14C
:104490000E94F120FF91EF91BF91AF919F918F9179
:1044A0007F916F915F914F913F912F910F900BBE34
:1044B0000F900FBE0F901F90189584EF90E10E940F
:1044C000A42021E0892B09F420E0822F0895E4EF55
:1044D000F0E11382128288EE93E0A0E0B0E08483E2
:1044E0009583A683B78383E993E09183808385ECEA
:1044F00090E09587848784EC90E09787868780ECAE
:1045000090E0918B808B81EC90E0938B828B82EC9E
:1045100090E0958B848B86EC90E0978B868B118E48
:10452000128E138E148E08951F920F920FB60F9253
:1045300011240BB60F922F938F939F93EF93FF93BA
:10454000E091A111F091A2118081E091A711F09169
:10455000A81182FD12C090818091AA118F5F8F7384
:104560002091AB11821751F0E091AA11F0E0EF56C3
:10457000FE4E958F8093AA1101C08081FF91EF912B
:104580009F918F912F910F900BBE0F900FBE0F90A8
:104590001F9018951F920F920FB60F9211240BB611
:1045A0000F922F933F934F935F936F937F938F93CC
:1045B0009F93AF93BF93EF93FF9381E991E10E94A3
:1045C000F120FF91EF91BF91AF919F918F917F91DA
:1045D0006F915F914F913F912F910F900BBE0F9074
:1045E0000FBE0F901F90189581E991E10E94A420C1
:1045F00021E0892B09F420E0822F0895E1E9F1E11F
:104600001382128288EE93E0A0E0B0E08483958369
:10461000A683B78383E993E0918380838DEC90E058
:10462000958784878CEC90E09787868788EC90E06C
:10463000918B808B89EC90E0938B828B8AEC90E05D
:10464000958B848B8EEC90E0978B868B118E128EDF
:10465000138E148E08958F929F92AF92BF92CF9235
:10466000DF92EF92FF920F931F93CF93DF937C0122
:104670008B014C0182E0880E911C5701E5E0AE0EE3
:10468000B11CC0E0D0E0F40161914F014AE050E07C
:10469000C8010E947B246C016EE2C8010E94F623CF
:1046A0008C0D9D1DC80FD91F8A149B0461F74AE029
:1046B00050E0F7016581C8010E947B248C0F9D1F8B
:1046C000DF91CF911F910F91FF90EF90DF90CF90EE
:1046D000BF90AF909F908F90089523EA33E0FC0144
:1046E00031832083128213821482158208950F93DE
:1046F000FC0183EA93E09183808362834383248374
:1047000005830F910895CF92DF92EF92FF920F935E
:104710001F93CF93DF936C017A018B01C0E0D0E04F
:10472000CE15DF0581F0D8016D918D01D601ED9197
:10473000FC910190F081E02DC6010995892B11F0C3
:104740002196EECF7E01C701DF91CF911F910F918E
:10475000FF90EF90DF90CF9008956115710579F08B
:10476000FB0101900020E9F73197AF01461B570B81
:10477000DC01ED91FC910280F381E02D099480E051
:1047800090E00895EF92FF920F931F93CF93DF93E2
:104790008C017B01C0E0D0E0F701EC0FFD1F6491BC
:1047A000662361F0D801ED91FC910190F081E02D3C
:1047B000C8010995892B11F02196EECFCE01DF912A
:1047C000CF911F910F91FF90EF900895DB01149608
:1047D0004D915C9115976D917C91DC01ED91FC916F
:1047E0000280F381E02D09940C94AD23DC01ED915E
:1047F000FC910190F081E02D09946EE671E00C943B
:10480000AD230F931F93CF93DF93EC010E94E62318
:104810008C01CE010E94FD23800F911FDF91CF916B
:104820001F910F9108950F931F93CF93DF93EC0186
:104830000E94AD238C01CE010E94FD23800F911FA9
:10484000DF91CF911F910F9108958F929F92AF9218
:10485000BF92EF92FF920F931F93CF93DF93CDB749
:10486000DEB7A1970FB6F894DEBF0FBECDBF7C01B7
:10487000FA01CB0119A2223008F42AE08E010F5D63
:104880001F4F822E912CA12CB12CBF01A5019401A8
:104890000E949B2BF901CA01015011096A3014F4DE
:1048A000605D01C0695CD8016C93232B242B252B00
:1048B00061F7B801C7010E94AD23A1960FB6F89425
:1048C000DEBF0FBECDBFDF91CF911F910F91FF9043
:1048D000EF90BF90AF909F908F9008952115310574
:1048E00041F4DC01ED91FC910190F081E02D642F09
:1048F00009940C9425249A01462F50E060E070E062
:104900000C946E240F931F93CF93DF93EC010E94BE
:104910007B248C01CE010E94FD23800F911FDF912B
:10492000CF911F910F9108959A01AB0160E070E063
:104930000C946E24CF92DF92EF92FF920F931F930D
:10494000CF93DF932115310581F4DC01ED91FC91CA
:104950000190F081E02D642FDF91CF911F910F9195
:10496000FF90EF90DF90CF9009942A30310501F548
:1049700077FF1DC06A017B01EC016DE20E94F62306
:104980008C0144275527BA014C195D096E097F092E
:104990002AE0CE010E942524800F911FDF91CF9144
:1049A0001F910F91FF90EF90DF90CF9008952AE034
:1049B000DF91CF911F910F91FF90EF90DF90CF90FB
:1049C0000C9425249A01AB01770F660B770B0C949E
:1049D0009A240F931F93CF93DF93EC010E944D2AEB
:1049E000688779878A879B87E881F9810680F781C4
:1049F000E02DCE01099597FF17C00E944D2A08852A
:104A000019852A853B85DC01CB01801B910BA20B0C
:104A1000B30B0C811D812E813F8180179107A20766
:104A2000B30710F38FEF9FEFDF91CF911F910F919D
:104A30000895EF92FF920F931F93CF93DF93EC01B2
:104A40007B01042F60E771E00E94B025C7010E943E
:104A5000E924002E000C110B97FD0BC08017910765
:104A600041F0682FCE010E940227C7010E94E9246D
:104A7000F3CFCE01DF91CF911F910F91FF90EF9077
:104A800008950895FC01808191810C94972CCF9317
:104A9000DF93EC0188819981009711F00E94972C97
:104AA000198218821D821C821B821A82DF91CF918B
:104AB00008950F931F93CF93DF93EC018B016F5FEA
:104AC0007F4F888199810E94202D009731F0998332
:104AD00088831B830A8381E001C080E0DF91CF914E
:104AE0001F910F910895CF93DF93EC0188819981F5
:104AF000892B29F08A819B818617970760F4CE0164
:104B00000E945925882341F08C819D81892B19F4BD
:104B1000E881F981108281E0DF91CF910895EF92D1
:104B2000FF920F931F93CF93DF93EC017B018A01D8
:104B3000BA010E947325811104C0CE010E9447254D
:104B400007C01D830C83B701888199810E94742E50
:104B5000CE01DF91CF911F910F91FF90EF900895BB
:104B6000FC01118210821382128215821482611557
:104B7000710551F0FB0101900020E9F73197AF0179
:104B8000461B570B0C948F250895EF92FF920F93BD
:104B90001F93CF93DF93EC017B018A01BA010E943E
:104BA0007325811104C0CE010E94472507C01D83D3
:104BB0000C83B701888199810E94352ECE01DF9147
:104BC000CF911F910F91FF90EF9008950F931F9336
:104BD000CF93DF938C01EB01FC01808191810097E1
:104BE000D1F0688179816115710599F021E435E290
:104BF000232B79F0428153812C813D814217530749
:104C000040F00E94742E8C819D81F80195838483ED
:104C100013C00E94972C88819981F8019183808329
:104C20008A819B81938382838C819D8195838483F8
:104C3000198218821B821A821D821C82DF91CF91F9
:104C40001F910F910895FC0111821082138212822C
:104C5000158214820C94E625CF93DF93EC01FB01BF
:104C60008617970761F0608171816115710529F0E0
:104C7000448155810E948F2502C00E944725CE01A4
:104C8000DF91CF910895FC0111821082138212826C
:104C9000158214820C942C26CF93DF93EC01861797
:104CA000970711F00E94E625CE01DF91CF9108957C
:104CB000CF93DF93EC016115710559F0FB01019071
:104CC0000020E9F73197AF01461B570B0E948F2553
:104CD00002C00E944725CE01DF91CF9108950F9326
:104CE0001F93CF93DF93CDB7DEB762970FB6F894DB
:104CF000DEBF0FBECDBF8C01CB01F8011182108247
:104D0000138212821582148250E0BE016F5F7F4FC2
:104D10000E94952EBE016F5F7F4FC8010E945826EA
:104D200062960FB6F894DEBF0FBECDBFDF91CF9174
:104D30001F910F9108950F931F93CF93DF93EC0171
:104D40008B016115710549F0CB010E943C2EAC012D
:104D5000B801CE010E94C52502C00E944725CE01A0
:104D6000DF91CF911F910F910895FC011182108264
:104D700013821282158214820C949B26EF92FF926A
:104D80000F931F93CF93DF936115710511F480E0AA
:104D90001CC041155105C1F07B01EC018C819D8146
:104DA0008A01080F191FB801CE010E9473258823BC
:104DB00071F3288139818C819D81B701820F931F06
:104DC0000E94742E1D830C8381E0DF91CF911F918F
:104DD0000F91FF90EF900895FB0144815581608110
:104DE00071810C94BE266115710551F0FB01019093
:104DF0000020E9F73197AF01461B570B0C94BE26F4
:104E000080E00895CF93DF9300D0CDB7DEB76983FC
:104E10001A8241E050E0BE016F5F7F4F0E94BE26C4
:104E20000F900F90DF91CF910895EF92FF920F9323
:104E30001F93CF93DF9300D000D0CDB7DEB77C01B6
:104E4000862F4AE08E010F5F1F4FB80190E00E944D
:104E5000A02EF80101900020E9F73197AF01401B27
:104E6000510BB801C7010E94BE260F900F900F9002
:104E70000F90DF91CF911F910F91FF90EF900895C8
:104E8000CF93DF93EC01FB014481558160817181F7
:104E90000E94BE26811103C0CE010E944725CE018B
:104EA000DF91CF910895CF93DF93DC01ED91FC91D9
:104EB000EB01A881B981309711F01097C9F41097D0
:104EC00059F0EB012C813D81232B31F08C9190E046
:104ED00091958195910914C0309781F0DC01149669
:104EE0008D919C911597892B49F0808190E008C0A5
:104EF000BD01CF01DF91CF910C946B2E80E090E04B
:104F0000DF91CF910895FC0144815581FB012481FB
:104F100035814217530729F40E94532721E0892B3A
:104F200009F020E0822F0895FC0124813581FB01E6
:104F30004481558124173507A0F0FC0180819181BF
:104F4000009779F0FB01608171816115710549F06D
:104F5000241B350B820F931F0E946B2E21E0892B9F
:104F600009F020E0822F0895CF93DF93FC01248184
:104F700035814217530778F4C081D181062E000C89
:104F8000770BCE01840F951F0E94602E009719F0B9
:104F90008C1B9D0B02C08FEF9FEFDF91CF91089587
:104FA000CF93DF93FC01248135814217530780F4AE
:104FB000FB01DC01CD91DC9160817181CE01840F18
:104FC000951F0E947B2E009719F08C1B9D0B02C031
:104FD0008FEF9FEFDF91CF91089540E050E00C9468
:104FE000D027AF92BF92CF92DF92EF92FF920F93B2
:104FF0001F93CF93DF937B018A01FB01448155818D
:105000004115510561F1FC012481358121153105DE
:1050100031F12417350718F10217130718F0890129
:1050200001501109FC01A080B180C501DFEFCFEF75
:105030006501C00ED11EC816D906A0F0F701608127
:1050400071810E947B2E009769F09C012A193B090F
:105050000217130710F0D22FC32F0196ECCF8FEF5A
:105060009FEF02C08D2F9C2FDF91CF911F910F9149
:10507000FF90EF90DF90CF90BF90AF900895FC012C
:1050800044815581FB0124813581421B530B0C94D3
:10509000F127BF92CF92DF92EF92FF920F931F936F
:1050A000CF93DF937C016B018A01E9012417350757
:1050B00020F4812F8901C42FD82F60E771E0C70148
:1050C0000E94B025D60114968D919C9115970817D2
:1050D0001907C8F48C179D0708F4EC01D601ED916F
:1050E000FC911197EC0FFD1FB08010826D917C91A7
:1050F000600F711FC7010E945826D601ED91FC91E7
:10510000EC0FFD1FB082C701DF91CF911F910F916E
:10511000FF90EF90DF90CF90BF9008952F923F9235
:105120004F925F926F927F928F929F92AF92BF92B7
:10513000CF92DF92EF92FF920F931F93CF93DF9363
:10514000FC01448055804114510409F4CEC0FB0198
:10515000848095808114910409F4C7C07A016B01A1
:105160008C01FA016480758068187908FC01C0819F
:10517000D18161147104B9F4F60160817181CE01AD
:105180000E947B2EEC01009709F4AFC0F70160810B
:105190007181448155810E94452EF701848195815A
:1051A000C80FD91FE9CF77FE44C05E01F6016081C8
:1051B0007181C5010E947B2E2C01009721F14C01C9
:1051C0008A189B08A401B501CE010E94452EC80D86
:1051D000D91DF7016081718144815581CE010E9402
:1051E000452EF70184819581C80FD91FF601A4804F
:1051F000B580A40CB51CF80184819581860D971D9E
:1052000095838483D3CFB501CE01DF91CF911F91D8
:105210000F91FF90EF90DF90CF90BF90AF909F9055
:105220008F907F906F905F904F903F902F900C9455
:10523000742EFB01208031805201B101CE010E9409
:105240007B2E009731F0EC01C80DD91DA60CB71CC0
:10525000F4CFA414B50409F448C0F8018281938105
:105260008A159B0530F4B501C8010E945925882391
:10527000E1F1F801448155814150510957FD35C094
:10528000B601C8010E94F127EC0197FD2EC0F6017E
:1052900024813581280F391FF80180819181820F87
:1052A000931F44815581421B530BBC01860D971DF2
:1052B0000E944E2EF80184819581860D971D95835D
:1052C000848320813181F901E80FF91F1082F801F0
:1052D00080819181F70160817181448155818C0FBA
:1052E0009D1F0E94452EAE01C7CFDF91CF911F9128
:1052F0000F91FF90EF90DF90CF90BF90AF909F9075
:105300008F907F906F905F904F903F902F90089577
:10531000AF92BF92CF92DF92EF92FF920F931F93C3
:10532000CF93DF93DC01CD90DC901197C114D104B1
:1053300009F443C01496CD91DC9115972097E9F1BB
:105340008C0176015701BFEFAB1ABB0AF7018081D0
:10535000082E000C990B0E942C2E892B11F0750140
:10536000F1CF2197CC0DDD1D8881082E000C990B03
:105370000E942C2E892B29F0CE15DF0510F02197E5
:10538000F3CFAE014F5F5F4F4E195F09D8011596FD
:105390005C934E931497CE14DF0420F4B701C6013A
:1053A0000E94452ED801ED91FC91119714968D9194
:1053B0009C911597E80FF91F1082DF91CF911F91F3
:1053C0000F91FF90EF90DF90CF90BF90AF90089536
:1053D000FC0180819181009711F00C94052E60E012
:1053E00070E0CB01089508950E94B82A0E94F32925
:1053F0000E94B510C2EDD0E20E94EE052097E1F3C5
:105400000E94D220F9CF1F920F920FB60F92112453
:105410002F933F938F939F93AF93BF9380912F12BE
:1054200090913012A0913112B091321230912E121F
:105430002DE2230F2D3720F40196A11DB11D05C0CB
:1054400020EB230F0296A11DB11D20932E128093F5
:105450002F1290933012A0933112B0933212809198
:10546000331290913412A0913512B09136120196F8
:10547000A11DB11D8093331290933412A093351265
:10548000B0933612BF91AF919F918F913F912F9121
:105490000F900FBE0F901F9018952FB7F894609142
:1054A0002F127091301280913112909132122FBFD1
:1054B00008959FB7F894409133125091341260913F
:1054C00035127091361286B5A89B06C08F3F21F029
:1054D0004F5F5F4F6F4F7F4F9FBF762F652F542FCA
:1054E00044279A01AB01280F311D411D511DA5E034
:1054F000B0E00E94F42B08958F929F92AF92BF92DA
:10550000CF92DF92EF92FF926B017C010E94592AA9
:105510004B015C01C114D104E104F10401F10E94CA
:105520009A2B0E94592ADC01CB0188199909AA09F2
:10553000BB09883E9340A105B10560F321E0C21A82
:10554000D108E108F10888EE880E83E0981EA11CBE
:10555000B11CC114D104E104F10419F7DBCFFF90B1
:10556000EF90DF90CF90BF90AF909F908F90089575
:10557000789484B5826084BD84B5816084BD85B52E
:10558000826085BD85B5816085BDEEE6F0E08081F5
:1055900081608083E1E8F0E0108280818260808316
:1055A000808181608083E0E8F0E080818160808399
:1055B000E1EBF0E0808184608083E0EBF0E08081CB
:1055C00081608083E1E9F0E0808182608083808176
:1055D00081608083E0E9F0E0808181608083EAE798
:1055E000F0E080818460808380818260808380811C
:1055F0008E7F80838081806880831092C1000895AF
:1056000090E0FC013297EA30F10540F5EA5BFF4F8C
:105610000C94DC2B809180008F7703C080918000F8
:105620008F7D80938000089584B58F7702C084B504
:105630008F7D84BD08958091B0008F7703C08091E5
:10564000B0008F7D8093B0000895809190008F7797
:1056500003C0809190008F7D809390000895CF9338
:10566000DF9390E0FC01EF5CFC4F2491FC01EF5ACA
:10567000FC4F8491882361F190E0880F991FFC0111
:10568000E558FC4FC591D491FC01EF58FC4FA59112
:10569000B491611109C09FB7F89488812095822345
:1056A0008883EC912E230BC0623061F49FB7F8948D
:1056B0008881322F309583238883EC912E2B2C9375
:1056C0009FBF06C08FB7F894E8812E2B28838FBF29
:1056D000DF91CF9108951F93CF93DF93282F30E070
:1056E000F901EF5EFC4F8491F901EF5CFC4FD4911E
:1056F000F901EF5AFC4FC491CC23C1F0162F811150
:105700000E94002BEC2FF0E0EE0FFF1FEF58FC4F34
:10571000A591B4919FB7F894111104C08C91D095C4
:10572000D82302C0EC91DE2BDC939FBFDF91CF9199
:105730001F9108950895A1E21A2EAA1BBB1BFD011B
:105740000DC0AA1FBB1FEE1FFF1FA217B307E40760
:10575000F50720F0A21BB30BE40BF50B661F771FB8
:10576000881F991F1A9469F7609570958095909598
:105770009B01AC01BD01CF010895052E97FB1EF4DE
:1057800000940E94D42B57FD07D00E949B2B07FC4E
:1057900003D04EF40C94D42B509540953095219520
:1057A0003F4F4F4F5F4F089590958095709561954D
:1057B0007F4F8F4F9F4F0895EE0FFF1F0024001C57
:1057C0000BBE0790F691E02D0994A29FB001B39F04
:1057D000C001A39F700D811D1124911DB29F700DFA
:1057E000811D1124911D08950E94E52BA59F900D08
:1057F000B49F900DA49F800D911D112408950F93C7
:105800001F93CF93DF938230910510F482E090E0F4
:10581000E0913912F0913A1220E030E0A0E0B0E0DF
:10582000309719F14081518102811381481759073E
:10583000C8F08417950769F4109731F012960C930D
:10584000129713961C9327C00093391210933A12A3
:1058500022C02115310519F04217530718F49A0197
:10586000BD01EF01DF01F801DBCF21153105F9F0B2
:10587000281B390B2430310580F48A819B81611506
:10588000710521F0FB019383828304C090933A1247
:1058900080933912FE01329644C0FE01E20FF31FDD
:1058A0008193919322503109398328833AC0209102
:1058B000371230913812232B41F42091020130919C
:1058C0000301309338122093371220910001309158
:1058D00001012115310541F42DB73EB74091040176
:1058E00050910501241B350BE0913712F0913812CD
:1058F000E217F307A0F42E1B3F0B2817390778F0A7
:10590000AC014E5F5F4F2417350748F04E0F5F1F05
:1059100050933812409337128193919302C0E0E084
:10592000F0E0CF01DF91CF911F910F910895CF93B8
:10593000DF93009709F481C0FC0132971382128231
:10594000A0913912B0913A12109781F420813181DF
:10595000820F931F20913712309138122817390780
:1059600051F5F0933812E093371267C0ED0120E053
:1059700030E0CE17DF0740F44A815B819E0141157C
:105980005105F1F0EA01F5CFD383C2834081518103
:10599000840F951FC817D90759F488819981840FFE
:1059A000951F0296918380838A819B819383828352
:1059B0002115310529F4F0933A12E09339123DC0D4
:1059C000E901FB83EA8349915991C40FD51FEC1774
:1059D000FD0761F480819181840F951F0296E90192
:1059E00099838883828193819B838A83E0E0F0E0BE
:1059F00012968D919C911397009719F0FD01DC018F
:105A0000F7CF8D919C9111979D012E5F3F4F820F93
:105A1000931F20913712309138122817390769F4F3
:105A2000309729F410923A121092391202C0138260
:105A30001282B0933812A0933712DF91CF9108955C
:105A40006F927F928F929F92AF92BF92CF92DF928E
:105A5000EF92FF920F931F93CF93DF93009789F4F8
:105A6000CB01DF91CF911F910F91FF90EF90DF90CD
:105A7000CF90BF90AF909F908F907F906F900C943D
:105A8000FF2BFC01E60FF71F9C0122503109E217A2
:105A9000F30708F4A9C0EC01D9010D911C911197ED
:105AA00006171707B0F00530110508F49BC0C801B0
:105AB00004978617970708F495C002501109061B32
:105AC000170B019311936D937C93CF010E94972C38
:105AD00089C05B01A01AB10A4C01800E911EA091F1
